{
  "_format": "hh-sol-artifact-1",
  "contractName": "ControlledWallet",
  "sourceName": "contracts/controlledWallet.sol",
  "abi": [
    {
      "inputs": [
        {
          "internalType": "address",
          "name": "initialOwner",
          "type": "address"
        }
      ],
      "stateMutability": "nonpayable",
      "type": "constructor"
    },
    {
      "inputs": [],
      "name": "ContractPaused",
      "type": "error"
    },
    {
      "inputs": [
        {
          "internalType": "uint256",
          "name": "available",
          "type": "uint256"
        },
        {
          "internalType": "uint256",
          "name": "required",
          "type": "uint256"
        }
      ],
      "name": "InsufficientBalance",
      "type": "error"
    },
    {
      "inputs": [],
      "name": "InvalidRecipient",
      "type": "error"
    },
    {
      "inputs": [
        {
          "internalType": "address",
          "name": "owner",
          "type": "address"
        }
      ],
      "name": "OwnableInvalidOwner",
      "type": "error"
    },
    {
      "inputs": [
        {
          "internalType": "address",
          "name": "account",
          "type": "address"
        }
      ],
      "name": "OwnableUnauthorizedAccount",
      "type": "error"
    },
    {
      "inputs": [],
      "name": "TokenTransferFailed",
      "type": "error"
    },
    {
      "inputs": [
        {
          "internalType": "address",
          "name": "recipient",
          "type": "address"
        },
        {
          "internalType": "uint256",
          "name": "amount",
          "type": "uint256"
        }
      ],
      "name": "TransferFailed",
      "type": "error"
    },
    {
      "inputs": [],
      "name": "ZeroValue",
      "type": "error"
    },
    {
      "anonymous": false,
      "inputs": [
        {
          "indexed": true,
          "internalType": "address",
          "name": "to",
          "type": "address"
        },
        {
          "indexed": false,
          "internalType": "uint256",
          "name": "amount",
          "type": "uint256"
        }
      ],
      "name": "EthTransferred",
      "type": "event"
    },
    {
      "anonymous": false,
      "inputs": [
        {
          "indexed": true,
          "internalType": "address",
          "name": "previousOwner",
          "type": "address"
        },
        {
          "indexed": true,
          "internalType": "address",
          "name": "newOwner",
          "type": "address"
        }
      ],
      "name": "OwnershipTransferred",
      "type": "event"
    },
    {
      "anonymous": false,
      "inputs": [
        {
          "indexed": true,
          "internalType": "address",
          "name": "account",
          "type": "address"
        }
      ],
      "name": "Paused",
      "type": "event"
    },
    {
      "anonymous": false,
      "inputs": [
        {
          "indexed": true,
          "internalType": "address",
          "name": "token",
          "type": "address"
        },
        {
          "indexed": true,
          "internalType": "address",
          "name": "to",
          "type": "address"
        },
        {
          "indexed": false,
          "internalType": "uint256",
          "name": "amount",
          "type": "uint256"
        }
      ],
      "name": "TokenTransferred",
      "type": "event"
    },
    {
      "anonymous": false,
      "inputs": [
        {
          "indexed": true,
          "internalType": "address",
          "name": "account",
          "type": "address"
        }
      ],
      "name": "Unpaused",
      "type": "event"
    },
    {
      "inputs": [],
      "name": "fundme",
      "outputs": [],
      "stateMutability": "payable",
      "type": "function"
    },
    {
      "inputs": [],
      "name": "owner",
      "outputs": [
        {
          "internalType": "address",
          "name": "",
          "type": "address"
        }
      ],
      "stateMutability": "view",
      "type": "function"
    },
    {
      "inputs": [],
      "name": "pause",
      "outputs": [],
      "stateMutability": "nonpayable",
      "type": "function"
    },
    {
      "inputs": [],
      "name": "paused",
      "outputs": [
        {
          "internalType": "bool",
          "name": "",
          "type": "bool"
        }
      ],
      "stateMutability": "view",
      "type": "function"
    },
    {
      "inputs": [],
      "name": "renounceOwnership",
      "outputs": [],
      "stateMutability": "nonpayable",
      "type": "function"
    },
    {
      "inputs": [
        {
          "internalType": "address",
          "name": "to",
          "type": "address"
        },
        {
          "internalType": "uint256",
          "name": "amount",
          "type": "uint256"
        }
      ],
      "name": "sendContractEth",
      "outputs": [],
      "stateMutability": "nonpayable",
      "type": "function"
    },
    {
      "inputs": [
        {
          "internalType": "address",
          "name": "token",
          "type": "address"
        },
        {
          "internalType": "address",
          "name": "to",
          "type": "address"
        },
        {
          "internalType": "uint256",
          "name": "amount",
          "type": "uint256"
        }
      ],
      "name": "sendToken",
      "outputs": [],
      "stateMutability": "nonpayable",
      "type": "function"
    },
    {
      "inputs": [
        {
          "internalType": "address",
          "name": "newOwner",
          "type": "address"
        }
      ],
      "name": "transferOwnership",
      "outputs": [],
      "stateMutability": "nonpayable",
      "type": "function"
    },
    {
      "inputs": [],
      "name": "unpause",
      "outputs": [],
      "stateMutability": "nonpayable",
      "type": "function"
    },
    {
      "inputs": [
        {
          "internalType": "uint256",
          "name": "amount",
          "type": "uint256"
        }
      ],
      "name": "withdraw",
      "outputs": [],
      "stateMutability": "nonpayable",
      "type": "function"
    }
  ],
  "bytecode": "0x60806040523480156200001157600080fd5b506040516200103f3803806200103f8339818101604052810190620000379190620001f4565b80600073ffffffffffffffffffffffffffffffffffffffff168173ffffffffffffffffffffffffffffffffffffffff1603620000ad5760006040517f1e4fbdf7000000000000000000000000000000000000000000000000000000008152600401620000a4919062000237565b60405180910390fd5b620000be81620000c660201b60201c565b505062000254565b60008060009054906101000a900473ffffffffffffffffffffffffffffffffffffffff169050816000806101000a81548173ffffffffffffffffffffffffffffffffffffffff021916908373ffffffffffffffffffffffffffffffffffffffff1602179055508173ffffffffffffffffffffffffffffffffffffffff168173ffffffffffffffffffffffffffffffffffffffff167f8be0079c531659141344cd1fd0a4f28419497f9722a3daafe3b4186f6b6457e060405160405180910390a35050565b600080fd5b600073ffffffffffffffffffffffffffffffffffffffff82169050919050565b6000620001bc826200018f565b9050919050565b620001ce81620001af565b8114620001da57600080fd5b50565b600081519050620001ee81620001c3565b92915050565b6000602082840312156200020d576200020c6200018a565b5b60006200021d84828501620001dd565b91505092915050565b6200023181620001af565b82525050565b60006020820190506200024e600083018462000226565b92915050565b610ddb80620002646000396000f3fe6080604052600436106100915760003560e01c80638456cb59116100595780638456cb59146101415780638da5cb5b14610158578063ac9fff0714610183578063d1d9165d146101ac578063f2fde38b146101b657610091565b80632e1a7d4d146100965780632fdcfbd2146100bf5780633f4ba83a146100e85780635c975abb146100ff578063715018a61461012a575b600080fd5b3480156100a257600080fd5b506100bd60048036038101906100b89190610adf565b6101df565b005b3480156100cb57600080fd5b506100e660048036038101906100e19190610b6a565b61033d565b005b3480156100f457600080fd5b506100fd610516565b005b34801561010b57600080fd5b50610114610584565b6040516101219190610bd8565b60405180910390f35b34801561013657600080fd5b5061013f610597565b005b34801561014d57600080fd5b506101566105ab565b005b34801561016457600080fd5b5061016d61061a565b60405161017a9190610c02565b60405180910390f35b34801561018f57600080fd5b506101aa60048036038101906101a59190610c1d565b610643565b005b6101b4610848565b005b3480156101c257600080fd5b506101dd60048036038101906101d89190610c5d565b6108cb565b005b6101e7610951565b600060149054906101000a900460ff161561022e576040517fab35696f00000000000000000000000000000000000000000000000000000000815260040160405180910390fd5b60004790508181101561027a5780826040517fcf479181000000000000000000000000000000000000000000000000000000008152600401610271929190610c99565b60405180910390fd5b600061028461061a565b73ffffffffffffffffffffffffffffffffffffffff16836040516102a790610cf3565b60006040518083038185875af1925050503d80600081146102e4576040519150601f19603f3d011682016040523d82523d6000602084013e6102e9565b606091505b5050905080610338576102fa61061a565b836040517f1c43b97600000000000000000000000000000000000000000000000000000000815260040161032f929190610d08565b60405180910390fd5b505050565b610345610951565b600060149054906101000a900460ff161561038c576040517fab35696f00000000000000000000000000000000000000000000000000000000815260040160405180910390fd5b600073ffffffffffffffffffffffffffffffffffffffff168273ffffffffffffffffffffffffffffffffffffffff16036103f2576040517f9c8d2cd200000000000000000000000000000000000000000000000000000000815260040160405180910390fd5b60008373ffffffffffffffffffffffffffffffffffffffff1663a9059cbb84846040518363ffffffff1660e01b815260040161042f929190610d08565b6020604051808303816000875af115801561044e573d6000803e3d6000fd5b505050506040513d601f19601f820116820180604052508101906104729190610d5d565b9050806104ab576040517f045c4b0200000000000000000000000000000000000000000000000000000000815260040160405180910390fd5b8273ffffffffffffffffffffffffffffffffffffffff168473ffffffffffffffffffffffffffffffffffffffff167f9c8515990fd8c61431c4ac8db9b81475f90c292a1dda77731e56c22e64fc7643846040516105089190610d8a565b60405180910390a350505050565b61051e610951565b60008060146101000a81548160ff0219169083151502179055506105406109d8565b73ffffffffffffffffffffffffffffffffffffffff167f5db9ee0a495bf2e6ff9c91a7834c1ba4fdd244a5e8aa4e537bd38aeae4b073aa60405160405180910390a2565b600060149054906101000a900460ff1681565b61059f610951565b6105a960006109e0565b565b6105b3610951565b6001600060146101000a81548160ff0219169083151502179055506105d66109d8565b73ffffffffffffffffffffffffffffffffffffffff167f62e78cea01bee320cd4e420270b5ea74000d11b0c9f74754ebdbfc544b05a25860405160405180910390a2565b60008060009054906101000a900473ffffffffffffffffffffffffffffffffffffffff16905090565b61064b610951565b600060149054906101000a900460ff1615610692576040517fab35696f00000000000000000000000000000000000000000000000000000000815260040160405180910390fd5b600073ffffffffffffffffffffffffffffffffffffffff168273ffffffffffffffffffffffffffffffffffffffff16036106f8576040517f9c8d2cd200000000000000000000000000000000000000000000000000000000815260040160405180910390fd5b6000479050818110156107445780826040517fcf47918100000000000000000000000000000000000000000000000000000000815260040161073b929190610c99565b60405180910390fd5b60008373ffffffffffffffffffffffffffffffffffffffff168360405161076a90610cf3565b60006040518083038185875af1925050503d80600081146107a7576040519150601f19603f3d011682016040523d82523d6000602084013e6107ac565b606091505b50509050806107f45783836040517f1c43b9760000000000000000000000000000000000000000000000000000000081526004016107eb929190610d08565b60405180910390fd5b8373ffffffffffffffffffffffffffffffffffffffff167fcec1f18c3ab8ddaaa107a1591e3c369667eec613626611a8deaedef43069fcdd8460405161083a9190610d8a565b60405180910390a250505050565b600060149054906101000a900460ff161561088f576040517fab35696f00000000000000000000000000000000000000000000000000000000815260040160405180910390fd5b600034036108c9576040517f7c946ed700000000000000000000000000000000000000000000000000000000815260040160405180910390fd5b565b6108d3610951565b600073ffffffffffffffffffffffffffffffffffffffff168173ffffffffffffffffffffffffffffffffffffffff16036109455760006040517f1e4fbdf700000000000000000000000000000000000000000000000000000000815260040161093c9190610c02565b60405180910390fd5b61094e816109e0565b50565b6109596109d8565b73ffffffffffffffffffffffffffffffffffffffff1661097761061a565b73ffffffffffffffffffffffffffffffffffffffff16146109d65761099a6109d8565b6040517f118cdaa70000000000000000000000000000000000000000000000000000000081526004016109cd9190610c02565b60405180910390fd5b565b600033905090565b60008060009054906101000a900473ffffffffffffffffffffffffffffffffffffffff169050816000806101000a81548173ffffffffffffffffffffffffffffffffffffffff021916908373ffffffffffffffffffffffffffffffffffffffff1602179055508173ffffffffffffffffffffffffffffffffffffffff168173ffffffffffffffffffffffffffffffffffffffff167f8be0079c531659141344cd1fd0a4f28419497f9722a3daafe3b4186f6b6457e060405160405180910390a35050565b600080fd5b6000819050919050565b610abc81610aa9565b8114610ac757600080fd5b50565b600081359050610ad981610ab3565b92915050565b600060208284031215610af557610af4610aa4565b5b6000610b0384828501610aca565b91505092915050565b600073ffffffffffffffffffffffffffffffffffffffff82169050919050565b6000610b3782610b0c565b9050919050565b610b4781610b2c565b8114610b5257600080fd5b50565b600081359050610b6481610b3e565b92915050565b600080600060608486031215610b8357610b82610aa4565b5b6000610b9186828701610b55565b9350506020610ba286828701610b55565b9250506040610bb386828701610aca565b9150509250925092565b60008115159050919050565b610bd281610bbd565b82525050565b6000602082019050610bed6000830184610bc9565b92915050565b610bfc81610b2c565b82525050565b6000602082019050610c176000830184610bf3565b92915050565b60008060408385031215610c3457610c33610aa4565b5b6000610c4285828601610b55565b9250506020610c5385828601610aca565b9150509250929050565b600060208284031215610c7357610c72610aa4565b5b6000610c8184828501610b55565b91505092915050565b610c9381610aa9565b82525050565b6000604082019050610cae6000830185610c8a565b610cbb6020830184610c8a565b9392505050565b600081905092915050565b50565b6000610cdd600083610cc2565b9150610ce882610ccd565b600082019050919050565b6000610cfe82610cd0565b9150819050919050565b6000604082019050610d1d6000830185610bf3565b610d2a6020830184610c8a565b9392505050565b610d3a81610bbd565b8114610d4557600080fd5b50565b600081519050610d5781610d31565b92915050565b600060208284031215610d7357610d72610aa4565b5b6000610d8184828501610d48565b91505092915050565b6000602082019050610d9f6000830184610c8a565b9291505056fea264697066735822122096f27e33e0a01126b33b092433029867924ffe955a7d0b84ef97ff96cf941e9564736f6c63430008140033",
  "linkReferences": {},
  "deployedLinkReferences": {}
}