{
  "_format": "hh-sol-artifact-1",
  "contractName": "MyToken",
  "sourceName": "contracts/myToken.sol",
  "abi": [
    {
      "inputs": [
        {
          "internalType": "string",
          "name": "name_",
          "type": "string"
        },
        {
          "internalType": "string",
          "name": "symbol_",
          "type": "string"
        },
        {
          "internalType": "uint256",
          "name": "initialSupply",
          "type": "uint256"
        },
        {
          "internalType": "address",
          "name": "initialOwner",
          "type": "address"
        }
      ],
      "stateMutability": "nonpayable",
      "type": "constructor"
    },
    {
      "inputs": [
        {
          "internalType": "address",
          "name": "spender",
          "type": "address"
        },
        {
          "internalType": "uint256",
          "name": "allowance",
          "type": "uint256"
        },
        {
          "internalType": "uint256",
          "name": "needed",
          "type": "uint256"
        }
      ],
      "name": "ERC20InsufficientAllowance",
      "type": "error"
    },
    {
      "inputs": [
        {
          "internalType": "address",
          "name": "sender",
          "type": "address"
        },
        {
          "internalType": "uint256",
          "name": "balance",
          "type": "uint256"
        },
        {
          "internalType": "uint256",
          "name": "needed",
          "type": "uint256"
        }
      ],
      "name": "ERC20InsufficientBalance",
      "type": "error"
    },
    {
      "inputs": [
        {
          "internalType": "address",
          "name": "approver",
          "type": "address"
        }
      ],
      "name": "ERC20InvalidApprover",
      "type": "error"
    },
    {
      "inputs": [
        {
          "internalType": "address",
          "name": "receiver",
          "type": "address"
        }
      ],
      "name": "ERC20InvalidReceiver",
      "type": "error"
    },
    {
      "inputs": [
        {
          "internalType": "address",
          "name": "sender",
          "type": "address"
        }
      ],
      "name": "ERC20InvalidSender",
      "type": "error"
    },
    {
      "inputs": [
        {
          "internalType": "address",
          "name": "spender",
          "type": "address"
        }
      ],
      "name": "ERC20InvalidSpender",
      "type": "error"
    },
    {
      "inputs": [
        {
          "internalType": "address",
          "name": "owner",
          "type": "address"
        }
      ],
      "name": "OwnableInvalidOwner",
      "type": "error"
    },
    {
      "inputs": [
        {
          "internalType": "address",
          "name": "account",
          "type": "address"
        }
      ],
      "name": "OwnableUnauthorizedAccount",
      "type": "error"
    },
    {
      "anonymous": false,
      "inputs": [
        {
          "indexed": true,
          "internalType": "address",
          "name": "owner",
          "type": "address"
        },
        {
          "indexed": true,
          "internalType": "address",
          "name": "spender",
          "type": "address"
        },
        {
          "indexed": false,
          "internalType": "uint256",
          "name": "value",
          "type": "uint256"
        }
      ],
      "name": "Approval",
      "type": "event"
    },
    {
      "anonymous": false,
      "inputs": [
        {
          "indexed": true,
          "internalType": "address",
          "name": "previousOwner",
          "type": "address"
        },
        {
          "indexed": true,
          "internalType": "address",
          "name": "newOwner",
          "type": "address"
        }
      ],
      "name": "OwnershipTransferred",
      "type": "event"
    },
    {
      "anonymous": false,
      "inputs": [
        {
          "indexed": true,
          "internalType": "address",
          "name": "from",
          "type": "address"
        },
        {
          "indexed": true,
          "internalType": "address",
          "name": "to",
          "type": "address"
        },
        {
          "indexed": false,
          "internalType": "uint256",
          "name": "value",
          "type": "uint256"
        }
      ],
      "name": "Transfer",
      "type": "event"
    },
    {
      "inputs": [
        {
          "internalType": "address",
          "name": "owner",
          "type": "address"
        },
        {
          "internalType": "address",
          "name": "spender",
          "type": "address"
        }
      ],
      "name": "allowance",
      "outputs": [
        {
          "internalType": "uint256",
          "name": "",
          "type": "uint256"
        }
      ],
      "stateMutability": "view",
      "type": "function"
    },
    {
      "inputs": [
        {
          "internalType": "address",
          "name": "spender",
          "type": "address"
        },
        {
          "internalType": "uint256",
          "name": "value",
          "type": "uint256"
        }
      ],
      "name": "approve",
      "outputs": [
        {
          "internalType": "bool",
          "name": "",
          "type": "bool"
        }
      ],
      "stateMutability": "nonpayable",
      "type": "function"
    },
    {
      "inputs": [
        {
          "internalType": "address",
          "name": "account",
          "type": "address"
        }
      ],
      "name": "balanceOf",
      "outputs": [
        {
          "internalType": "uint256",
          "name": "",
          "type": "uint256"
        }
      ],
      "stateMutability": "view",
      "type": "function"
    },
    {
      "inputs": [],
      "name": "decimals",
      "outputs": [
        {
          "internalType": "uint8",
          "name": "",
          "type": "uint8"
        }
      ],
      "stateMutability": "view",
      "type": "function"
    },
    {
      "inputs": [],
      "name": "name",
      "outputs": [
        {
          "internalType": "string",
          "name": "",
          "type": "string"
        }
      ],
      "stateMutability": "view",
      "type": "function"
    },
    {
      "inputs": [],
      "name": "owner",
      "outputs": [
        {
          "internalType": "address",
          "name": "",
          "type": "address"
        }
      ],
      "stateMutability": "view",
      "type": "function"
    },
    {
      "inputs": [],
      "name": "renounceOwnership",
      "outputs": [],
      "stateMutability": "nonpayable",
      "type": "function"
    },
    {
      "inputs": [],
      "name": "symbol",
      "outputs": [
        {
          "internalType": "string",
          "name": "",
          "type": "string"
        }
      ],
      "stateMutability": "view",
      "type": "function"
    },
    {
      "inputs": [],
      "name": "totalSupply",
      "outputs": [
        {
          "internalType": "uint256",
          "name": "",
          "type": "uint256"
        }
      ],
      "stateMutability": "view",
      "type": "function"
    },
    {
      "inputs": [
        {
          "internalType": "address",
          "name": "to",
          "type": "address"
        },
        {
          "internalType": "uint256",
          "name": "value",
          "type": "uint256"
        }
      ],
      "name": "transfer",
      "outputs": [
        {
          "internalType": "bool",
          "name": "",
          "type": "bool"
        }
      ],
      "stateMutability": "nonpayable",
      "type": "function"
    },
    {
      "inputs": [
        {
          "internalType": "address",
          "name": "from",
          "type": "address"
        },
        {
          "internalType": "address",
          "name": "to",
          "type": "address"
        },
        {
          "internalType": "uint256",
          "name": "value",
          "type": "uint256"
        }
      ],
      "name": "transferFrom",
      "outputs": [
        {
          "internalType": "bool",
          "name": "",
          "type": "bool"
        }
      ],
      "stateMutability": "nonpayable",
      "type": "function"
    },
    {
      "inputs": [
        {
          "internalType": "address",
          "name": "newOwner",
          "type": "address"
        }
      ],
      "name": "transferOwnership",
      "outputs": [],
      "stateMutability": "nonpayable",
      "type": "function"
    }
  ],
  "bytecode": "0x60806040523480156200001157600080fd5b5060405162001f9538038062001f9583398181016040528101906200003791906200075e565b80848481600390816200004b919062000a4f565b5080600490816200005d919062000a4f565b505050600073ffffffffffffffffffffffffffffffffffffffff168173ffffffffffffffffffffffffffffffffffffffff1603620000d55760006040517f1e4fbdf7000000000000000000000000000000000000000000000000000000008152600401620000cc919062000b47565b60405180910390fd5b620000e6816200019f60201b60201c565b50600073ffffffffffffffffffffffffffffffffffffffff168173ffffffffffffffffffffffffffffffffffffffff160362000159576040517f08c379a0000000000000000000000000000000000000000000000000000000008152600401620001509062000bc5565b60405180910390fd5b62000195816200016e6200026560201b60201c565b600a6200017c919062000d77565b8462000189919062000dc8565b6200026e60201b60201c565b5050505062000eb9565b6000600560009054906101000a900473ffffffffffffffffffffffffffffffffffffffff16905081600560006101000a81548173ffffffffffffffffffffffffffffffffffffffff021916908373ffffffffffffffffffffffffffffffffffffffff1602179055508173ffffffffffffffffffffffffffffffffffffffff168173ffffffffffffffffffffffffffffffffffffffff167f8be0079c531659141344cd1fd0a4f28419497f9722a3daafe3b4186f6b6457e060405160405180910390a35050565b60006012905090565b600073ffffffffffffffffffffffffffffffffffffffff168273ffffffffffffffffffffffffffffffffffffffff1603620002e35760006040517fec442f05000000000000000000000000000000000000000000000000000000008152600401620002da919062000b47565b60405180910390fd5b620002f760008383620002fb60201b60201c565b5050565b600073ffffffffffffffffffffffffffffffffffffffff168373ffffffffffffffffffffffffffffffffffffffff16036200035157806002600082825462000344919062000e13565b9250508190555062000427565b60008060008573ffffffffffffffffffffffffffffffffffffffff1673ffffffffffffffffffffffffffffffffffffffff16815260200190815260200160002054905081811015620003e0578381836040517fe450d38c000000000000000000000000000000000000000000000000000000008152600401620003d79392919062000e5f565b60405180910390fd5b8181036000808673ffffffffffffffffffffffffffffffffffffffff1673ffffffffffffffffffffffffffffffffffffffff16815260200190815260200160002081905550505b600073ffffffffffffffffffffffffffffffffffffffff168273ffffffffffffffffffffffffffffffffffffffff1603620004725780600260008282540392505081905550620004bf565b806000808473ffffffffffffffffffffffffffffffffffffffff1673ffffffffffffffffffffffffffffffffffffffff168152602001908152602001600020600082825401925050819055505b8173ffffffffffffffffffffffffffffffffffffffff168373ffffffffffffffffffffffffffffffffffffffff167fddf252ad1be2c89b69c2b068fc378daa952ba7f163c4a11628f55a4df523b3ef836040516200051e919062000e9c565b60405180910390a3505050565b6000604051905090565b600080fd5b600080fd5b600080fd5b600080fd5b6000601f19601f8301169050919050565b7f4e487b7100000000000000000000000000000000000000000000000000000000600052604160045260246000fd5b620005948262000549565b810181811067ffffffffffffffff82111715620005b657620005b56200055a565b5b80604052505050565b6000620005cb6200052b565b9050620005d9828262000589565b919050565b600067ffffffffffffffff821115620005fc57620005fb6200055a565b5b620006078262000549565b9050602081019050919050565b60005b838110156200063457808201518184015260208101905062000617565b60008484015250505050565b6000620006576200065184620005de565b620005bf565b90508281526020810184848401111562000676576200067562000544565b5b6200068384828562000614565b509392505050565b600082601f830112620006a357620006a26200053f565b5b8151620006b584826020860162000640565b91505092915050565b6000819050919050565b620006d381620006be565b8114620006df57600080fd5b50565b600081519050620006f381620006c8565b92915050565b600073ffffffffffffffffffffffffffffffffffffffff82169050919050565b60006200072682620006f9565b9050919050565b620007388162000719565b81146200074457600080fd5b50565b60008151905062000758816200072d565b92915050565b600080600080608085870312156200077b576200077a62000535565b5b600085015167ffffffffffffffff8111156200079c576200079b6200053a565b5b620007aa878288016200068b565b945050602085015167ffffffffffffffff811115620007ce57620007cd6200053a565b5b620007dc878288016200068b565b9350506040620007ef87828801620006e2565b9250506060620008028782880162000747565b91505092959194509250565b600081519050919050565b7f4e487b7100000000000000000000000000000000000000000000000000000000600052602260045260246000fd5b600060028204905060018216806200086157607f821691505b60208210810362000877576200087662000819565b5b50919050565b60008190508160005260206000209050919050565b60006020601f8301049050919050565b600082821b905092915050565b600060088302620008e17fffffffffffffffffffffffffffffffffffffffffffffffffffffffffffffffff82620008a2565b620008ed8683620008a2565b95508019841693508086168417925050509392505050565b6000819050919050565b6000620009306200092a6200092484620006be565b62000905565b620006be565b9050919050565b6000819050919050565b6200094c836200090f565b620009646200095b8262000937565b848454620008af565b825550505050565b600090565b6200097b6200096c565b6200098881848462000941565b505050565b5b81811015620009b057620009a460008262000971565b6001810190506200098e565b5050565b601f821115620009ff57620009c9816200087d565b620009d48462000892565b81016020851015620009e4578190505b620009fc620009f38562000892565b8301826200098d565b50505b505050565b600082821c905092915050565b600062000a246000198460080262000a04565b1980831691505092915050565b600062000a3f838362000a11565b9150826002028217905092915050565b62000a5a826200080e565b67ffffffffffffffff81111562000a765762000a756200055a565b5b62000a82825462000848565b62000a8f828285620009b4565b600060209050601f83116001811462000ac7576000841562000ab2578287015190505b62000abe858262000a31565b86555062000b2e565b601f19841662000ad7866200087d565b60005b8281101562000b015784890151825560018201915060208501945060208101905062000ada565b8683101562000b21578489015162000b1d601f89168262000a11565b8355505b6001600288020188555050505b505050505050565b62000b418162000719565b82525050565b600060208201905062000b5e600083018462000b36565b92915050565b600082825260208201905092915050565b7f496e76616c6964206f776e657200000000000000000000000000000000000000600082015250565b600062000bad600d8362000b64565b915062000bba8262000b75565b602082019050919050565b6000602082019050818103600083015262000be08162000b9e565b9050919050565b7f4e487b7100000000000000000000000000000000000000000000000000000000600052601160045260246000fd5b60008160011c9050919050565b6000808291508390505b600185111562000c755780860481111562000c4d5762000c4c62000be7565b5b600185161562000c5d5780820291505b808102905062000c6d8562000c16565b945062000c2d565b94509492505050565b60008262000c90576001905062000d63565b8162000ca0576000905062000d63565b816001811462000cb9576002811462000cc45762000cfa565b600191505062000d63565b60ff84111562000cd95762000cd862000be7565b5b8360020a91508482111562000cf35762000cf262000be7565b5b5062000d63565b5060208310610133831016604e8410600b841016171562000d345782820a90508381111562000d2e5762000d2d62000be7565b5b62000d63565b62000d43848484600162000c23565b9250905081840481111562000d5d5762000d5c62000be7565b5b81810290505b9392505050565b600060ff82169050919050565b600062000d8482620006be565b915062000d918362000d6a565b925062000dc07fffffffffffffffffffffffffffffffffffffffffffffffffffffffffffffffff848462000c7e565b905092915050565b600062000dd582620006be565b915062000de283620006be565b925082820262000df281620006be565b9150828204841483151762000e0c5762000e0b62000be7565b5b5092915050565b600062000e2082620006be565b915062000e2d83620006be565b925082820190508082111562000e485762000e4762000be7565b5b92915050565b62000e5981620006be565b82525050565b600060608201905062000e76600083018662000b36565b62000e85602083018562000e4e565b62000e94604083018462000e4e565b949350505050565b600060208201905062000eb3600083018462000e4e565b92915050565b6110cc8062000ec96000396000f3fe608060405234801561001057600080fd5b50600436106100b45760003560e01c8063715018a611610071578063715018a6146101a35780638da5cb5b146101ad57806395d89b41146101cb578063a9059cbb146101e9578063dd62ed3e14610219578063f2fde38b14610249576100b4565b806306fdde03146100b9578063095ea7b3146100d757806318160ddd1461010757806323b872dd14610125578063313ce5671461015557806370a0823114610173575b600080fd5b6100c1610265565b6040516100ce9190610d20565b60405180910390f35b6100f160048036038101906100ec9190610ddb565b6102f7565b6040516100fe9190610e36565b60405180910390f35b61010f61031a565b60405161011c9190610e60565b60405180910390f35b61013f600480360381019061013a9190610e7b565b610324565b60405161014c9190610e36565b60405180910390f35b61015d610353565b60405161016a9190610eea565b60405180910390f35b61018d60048036038101906101889190610f05565b61035c565b60405161019a9190610e60565b60405180910390f35b6101ab6103a4565b005b6101b56103b8565b6040516101c29190610f41565b60405180910390f35b6101d36103e2565b6040516101e09190610d20565b60405180910390f35b61020360048036038101906101fe9190610ddb565b610474565b6040516102109190610e36565b60405180910390f35b610233600480360381019061022e9190610f5c565b610497565b6040516102409190610e60565b60405180910390f35b610263600480360381019061025e9190610f05565b61051e565b005b60606003805461027490610fcb565b80601f01602080910402602001604051908101604052809291908181526020018280546102a090610fcb565b80156102ed5780601f106102c2576101008083540402835291602001916102ed565b820191906000526020600020905b8154815290600101906020018083116102d057829003601f168201915b5050505050905090565b6000806103026105a4565b905061030f8185856105ac565b600191505092915050565b6000600254905090565b60008061032f6105a4565b905061033c8582856105be565b610347858585610653565b60019150509392505050565b60006012905090565b60008060008373ffffffffffffffffffffffffffffffffffffffff1673ffffffffffffffffffffffffffffffffffffffff168152602001908152602001600020549050919050565b6103ac610747565b6103b660006107ce565b565b6000600560009054906101000a900473ffffffffffffffffffffffffffffffffffffffff16905090565b6060600480546103f190610fcb565b80601f016020809104026020016040519081016040528092919081815260200182805461041d90610fcb565b801561046a5780601f1061043f5761010080835404028352916020019161046a565b820191906000526020600020905b81548152906001019060200180831161044d57829003601f168201915b5050505050905090565b60008061047f6105a4565b905061048c818585610653565b600191505092915050565b6000600160008473ffffffffffffffffffffffffffffffffffffffff1673ffffffffffffffffffffffffffffffffffffffff16815260200190815260200160002060008373ffffffffffffffffffffffffffffffffffffffff1673ffffffffffffffffffffffffffffffffffffffff16815260200190815260200160002054905092915050565b610526610747565b600073ffffffffffffffffffffffffffffffffffffffff168173ffffffffffffffffffffffffffffffffffffffff16036105985760006040517f1e4fbdf700000000000000000000000000000000000000000000000000000000815260040161058f9190610f41565b60405180910390fd5b6105a1816107ce565b50565b600033905090565b6105b98383836001610894565b505050565b60006105ca8484610497565b90507fffffffffffffffffffffffffffffffffffffffffffffffffffffffffffffffff81101561064d578181101561063d578281836040517ffb8f41b200000000000000000000000000000000000000000000000000000000815260040161063493929190610ffc565b60405180910390fd5b61064c84848484036000610894565b5b50505050565b600073ffffffffffffffffffffffffffffffffffffffff168373ffffffffffffffffffffffffffffffffffffffff16036106c55760006040517f96c6fd1e0000000000000000000000000000000000000000000000000000000081526004016106bc9190610f41565b60405180910390fd5b600073ffffffffffffffffffffffffffffffffffffffff168273ffffffffffffffffffffffffffffffffffffffff16036107375760006040517fec442f0500000000000000000000000000000000000000000000000000000000815260040161072e9190610f41565b60405180910390fd5b610742838383610a6b565b505050565b61074f6105a4565b73ffffffffffffffffffffffffffffffffffffffff1661076d6103b8565b73ffffffffffffffffffffffffffffffffffffffff16146107cc576107906105a4565b6040517f118cdaa70000000000000000000000000000000000000000000000000000000081526004016107c39190610f41565b60405180910390fd5b565b6000600560009054906101000a900473ffffffffffffffffffffffffffffffffffffffff16905081600560006101000a81548173ffffffffffffffffffffffffffffffffffffffff021916908373ffffffffffffffffffffffffffffffffffffffff1602179055508173ffffffffffffffffffffffffffffffffffffffff168173ffffffffffffffffffffffffffffffffffffffff167f8be0079c531659141344cd1fd0a4f28419497f9722a3daafe3b4186f6b6457e060405160405180910390a35050565b600073ffffffffffffffffffffffffffffffffffffffff168473ffffffffffffffffffffffffffffffffffffffff16036109065760006040517fe602df050000000000000000000000000000000000000000000000000000000081526004016108fd9190610f41565b60405180910390fd5b600073ffffffffffffffffffffffffffffffffffffffff168373ffffffffffffffffffffffffffffffffffffffff16036109785760006040517f94280d6200000000000000000000000000000000000000000000000000000000815260040161096f9190610f41565b60405180910390fd5b81600160008673ffffffffffffffffffffffffffffffffffffffff1673ffffffffffffffffffffffffffffffffffffffff16815260200190815260200160002060008573ffffffffffffffffffffffffffffffffffffffff1673ffffffffffffffffffffffffffffffffffffffff168152602001908152602001600020819055508015610a65578273ffffffffffffffffffffffffffffffffffffffff168473ffffffffffffffffffffffffffffffffffffffff167f8c5be1e5ebec7d5bd14f71427d1e84f3dd0314c0f7b2291e5b200ac8c7c3b92584604051610a5c9190610e60565b60405180910390a35b50505050565b600073ffffffffffffffffffffffffffffffffffffffff168373ffffffffffffffffffffffffffffffffffffffff1603610abd578060026000828254610ab19190611062565b92505081905550610b90565b60008060008573ffffffffffffffffffffffffffffffffffffffff1673ffffffffffffffffffffffffffffffffffffffff16815260200190815260200160002054905081811015610b49578381836040517fe450d38c000000000000000000000000000000000000000000000000000000008152600401610b4093929190610ffc565b60405180910390fd5b8181036000808673ffffffffffffffffffffffffffffffffffffffff1673ffffffffffffffffffffffffffffffffffffffff16815260200190815260200160002081905550505b600073ffffffffffffffffffffffffffffffffffffffff168273ffffffffffffffffffffffffffffffffffffffff1603610bd95780600260008282540392505081905550610c26565b806000808473ffffffffffffffffffffffffffffffffffffffff1673ffffffffffffffffffffffffffffffffffffffff168152602001908152602001600020600082825401925050819055505b8173ffffffffffffffffffffffffffffffffffffffff168373ffffffffffffffffffffffffffffffffffffffff167fddf252ad1be2c89b69c2b068fc378daa952ba7f163c4a11628f55a4df523b3ef83604051610c839190610e60565b60405180910390a3505050565b600081519050919050565b600082825260208201905092915050565b60005b83811015610cca578082015181840152602081019050610caf565b60008484015250505050565b6000601f19601f8301169050919050565b6000610cf282610c90565b610cfc8185610c9b565b9350610d0c818560208601610cac565b610d1581610cd6565b840191505092915050565b60006020820190508181036000830152610d3a8184610ce7565b905092915050565b600080fd5b600073ffffffffffffffffffffffffffffffffffffffff82169050919050565b6000610d7282610d47565b9050919050565b610d8281610d67565b8114610d8d57600080fd5b50565b600081359050610d9f81610d79565b92915050565b6000819050919050565b610db881610da5565b8114610dc357600080fd5b50565b600081359050610dd581610daf565b92915050565b60008060408385031215610df257610df1610d42565b5b6000610e0085828601610d90565b9250506020610e1185828601610dc6565b9150509250929050565b60008115159050919050565b610e3081610e1b565b82525050565b6000602082019050610e4b6000830184610e27565b92915050565b610e5a81610da5565b82525050565b6000602082019050610e756000830184610e51565b92915050565b600080600060608486031215610e9457610e93610d42565b5b6000610ea286828701610d90565b9350506020610eb386828701610d90565b9250506040610ec486828701610dc6565b9150509250925092565b600060ff82169050919050565b610ee481610ece565b82525050565b6000602082019050610eff6000830184610edb565b92915050565b600060208284031215610f1b57610f1a610d42565b5b6000610f2984828501610d90565b91505092915050565b610f3b81610d67565b82525050565b6000602082019050610f566000830184610f32565b92915050565b60008060408385031215610f7357610f72610d42565b5b6000610f8185828601610d90565b9250506020610f9285828601610d90565b9150509250929050565b7f4e487b7100000000000000000000000000000000000000000000000000000000600052602260045260246000fd5b60006002820490506001821680610fe357607f821691505b602082108103610ff657610ff5610f9c565b5b50919050565b60006060820190506110116000830186610f32565b61101e6020830185610e51565b61102b6040830184610e51565b949350505050565b7f4e487b7100000000000000000000000000000000000000000000000000000000600052601160045260246000fd5b600061106d82610da5565b915061107883610da5565b92508282019050808211156110905761108f611033565b5b9291505056fea2646970667358221220834295425e63939eaa90285f4e87ef5b94ba6e9be70513f18b4c1091a3a9586e64736f6c63430008140033",
  "linkReferences": {},
  "deployedLinkReferences": {}
}